:020000000129D4
:0C000600831226088A00250882000800EA
:1000120083120313D801D9011030DC00510DD80D21
:10002200D90D5408D8025508031C550FD9020318DC
:1000320021285408D80755080318550FD90703106B
:0A004200D00DD10DDC0B0F280800D3
:10004C008312BE01851C2B2828281130DD00DD0B06
:10005C002D280130D1005108003A031940281F30D7
:10006C00DD00DD0B3728851C3D285108BE04D10D61
:10007C00511031282230DD00DD0B422800003E08F3
:04008C00D000080098
:10009000831205102230DD00DD0B4C2800000130FA
:1000A000D1005108003A0319662851083E05D000D6
:1000B00003195C2805145D2805101D30DD00DD0BDB
:1000C0005F2800000000D10D511051280514223086
:0A00D000DD00DD0B692800000800C8
:1000DA0083123908A5003A08A60003208A110A12D9
:1000EA00D0005008031986283908A5003A08A60046
:1000FA0003208A110A12BE004820B90A0319BA0A53
:04010A006D28080054
:10010E008312BC0105303C02031894283C083B07BF
:10011E00840020308000BC0A89283C083B078400FC
:10012E008001BC033C083B07BD000A30D400D5015A
:10013E003908D0003A08D10009205808D0005908D3
:10014E00D1003030D0073D088400500880000A30BE
:10015E00D400D5013908D0003A08D1000920500842
:10016E00B9005108BA0000305106031DC0280030F6
:0E017E005006031DC328C528BC03992808009D
:10018C008312051485148316051085148312051427
:0C019C002230DD00DD0BD0280000080040
:1001A80083123908840000080319E12839088400FB
:0C01B8000008BE004820B90AD428080046
:1001C40083123903840000083A060319F028262014
:1001D4003908840050088000B90AE228B9033908B4
:0601E40084008001080008
:1001EA0003208A110A128000840AA50A0319A60AA2
:0801FA00D003031DF5280800E5
:100202000D308312A0000A30A1000D30A2000A3086
:10021200A300A4012030831690009F0183129F0146
:1002220007309900831699018501831285010330F5
:10023200DB008A30DC005530DD00DD0B1E29DC0BD3
:100242001E29DB0B1E2900000000C620F930B90070
:100252000130BA006D202130B9000230BA006D20A1
:100262004130A90029085A3C031C46292908BE002E
:1002720048208230DC00DD30DD00DD0B3E29DC0B66
:100282003E2900000000A90A33292630B9000230B5
:10029200BA006D20C130B9000130BA006D202A3099
:1002A200B9000D30BA00E2202A30B900D420203043
:1002B200B900D420DE30B9000130BA006D203030F0
:1002C200B9000230BA006D2026205008A800333051
:1002D200B9000230BA006D200F30B9000230BA0006
:1002E2006D202808BE0048201C30B9000230BA0038
:1002F2006D20A70A0530B9000230BA006D20270828
:10030200B900BA012A30BB0087202A30B900D420B4
:100312001730B9000230BA006D20A330B9000130A5
:10032200BA006D202B30B9000230BA006D201A30AD
:10033200DC00F830DD00DD0B9C29DC0B9C29000081
:040342004B29A22978
:100346003D343D343D343D343D343D343D343D341F
:100356003D343D343D343D343D343D343D343D340F
:100366003D343D343D343D343D343D343D343D34FF
:0C0376003D343D343D343D343D34003412
:10038200543479347034653420346D3465347334C4
:100392007334613467346534203426342034703445
:1003A2007234653473347334203445346E347434A7
:0A03B200653472343A34203400340C
:1003BC00573461346934743469346E34673420349E
:1003CC0066346F34723420346134203473346934BD
:1003DC006E3467346C346534203469346E34703464
:0603EC0075347434003486
:1003F2005334543441345234543449344E344734EF
:080402002E342E342E34003498
:10040A0043346F3475346E347434653472343A3428
:04041A002034003456
:10041E0049346E347034753474343A3420340034C4
:0A042E000D340A340D340A34003492
:0A0438000D340A340D340A34003488
:0A0442000D340A340D340A3400347E
:0A044C000D340A340D340A34003474
:0A0456000D340A340D340A3400346A
:060460000D340A340034E3
:060466000D340A340034DD
:02400E009431EB
:00000001FF
